:100000000C945D000C9485000C9485000C94850084
:100010000C9485000C9485000C9485000C9485004C
:100020000C9485000C9485000C9485000C9485003C
:100030000C9485000C9485000C9485000C9485002C
:100040000C94E2050C9485000C9452060C942C063A
:100050000C9485000C9485000C9485000C9485000C
:100060000C9484060C948500000000080002010036
:100070000003040700000000000000000000000072
:10008000250028002B0000000000240027002A0083
:10009000040404040404040402020202020203032E
:1000A0000303030301020408102040800102040836
:1000B0001020010204081020A30711241FBECFEF57
:1000C000D8E0DEBFCDBF11E0A0E0B1E0EAEEF6E19E
:1000D00002C005900D92A838B107D9F723E0A8E82F
:1000E000B1E001C01D92A830B207E1F710E0CDE504
:1000F000D0E004C02197FE010E946D0BCC35D107E2
:10010000C9F70E94EB070C94730B0C94000090E06D
:10011000FC01EC55FF4F249180579F4FFC018491C7
:10012000882399F090E0880F991FFC01EA57FF4F50
:10013000A591B491FC01E458FF4F859194918FB73C
:10014000F894EC91E22BEC938FBF089590E0FC01C2
:10015000E859FF4F2491FC01EC55FF4F3491FC010D
:10016000E057FF4FE491EE23C9F0222339F023300A
:1001700001F1A8F4213019F1223029F1F0E0EE0F5D
:10018000FF1FE458FF4FA591B4918FB7F894EC91FD
:10019000611126C030953E233C938FBF08952730D0
:1001A000A9F02830C9F0243049F7809180008F7D74
:1001B00003C0809180008F7780938000DFCF84B56B
:1001C0008F7784BDDBCF84B58F7DFBCF8091B0006E
:1001D0008F778093B000D2CF8091B0008F7DF9CF20
:1001E0003E2BDACF1F93CF93DF93182FEB010E94A2
:1001F0008700209739F460E0812FDF91CF911F9124
:100200000C94A600CF3FD10511F461E0F5CFE12FAA
:10021000F0E0E859FF4FE491E33031F140F4E13090
:10022000B1F0E230E1F0C038D1057CF7E4CFE7303F
:1002300029F1E83059F1E430B1F780918000806213
:1002400080938000D0938B00C0938A0004C084B553
:10025000806884BDC7BDDF91CF911F91089584B59B
:10026000806284BDC8BDF7CF809180008068809394
:100270008000D0938900C0938800EDCF8091B000BA
:1002800080688093B000C093B300E5CF8091B00048
:1002900080628093B000C093B400DDCF3FB7F89484
:1002A00080914F0290915002A0915102B091520260
:1002B00026B5A89B05C02F3F19F00196A11DB11DC1
:1002C0003FBFBA2FA92F982F8827BC01CD01620FFD
:1002D000711D811D911D42E0660F771F881F991FB8
:1002E0004A95D1F708958F929F92AF92BF92CF9285
:1002F000DF92EF92FF926B017C010E944E014B0155
:100300005C01C114D104E104F104B9F00E944E0172
:10031000681979098A099B09683E7340810591052E
:1003200080F321E0C21AD108E108F10888EE880EB6
:1003300083E0981EA11CB11CE4CFFF90EF90DF90EA
:10034000CF90BF90AF909F908F900895089508959B
:10035000AF92BF92CF92DF92EF92FF920F931F93D3
:10036000CF93DF936C017B018B01040F151FEB0111
:100370005E01AE18BF08C017D10759F06991D601C8
:10038000ED91FC910190F081E02DC6010995892B3A
:1003900079F7C501DF91CF911F910F91FF90EF90F9
:1003A000DF90CF90BF90AF900895FC01538D448DA6
:1003B000252F30E0842F90E0821B930B541710F010
:1003C000CF96089501970895FC01918D828D98171D
:1003D00061F0A28DAE0FBF2FB11D5D968C91928DF5
:1003E0009F5F9F73928F90E008958FEF9FEF089526
:1003F000FC01918D828D981731F0828DE80FF11DEF
:10040000858D90E008958FEF9FEF0895FC01918D09
:10041000228D892F90E0805C9F4F821B91098F7302
:100420009927089583E592E00E94060221E0892B36
:1004300009F420E0822F089580E090E0892B29F0D4
:100440000E94120281110C9400000895FC01A48DF9
:10045000A80FB92FB11DA35ABF4F2C91848D90E0E6
:1004600001968F739927848FA689B7892C93A089C9
:10047000B1898C91837080648C93938D848D981353
:1004800006C00288F389E02D80818F7D80830895E6
:10049000EF92FF920F931F93CF93DF93EC0181E0D4
:1004A000888F9B8D8C8D98131AC0E889F98980817B
:1004B00085FF15C09FB7F894EE89FF896083E889AE
:1004C000F98980818370806480839FBF81E090E0A0
:1004D000DF91CF911F910F91FF90EF900895F62E2D
:1004E0000B8D10E00F5F1F4F0F731127E02E8C8DC7
:1004F0008E110CC00FB607FCFACFE889F98980810C
:1005000085FFF5CFCE010E942602F1CFEB8DEC0FD7
:10051000FD2FF11DE35AFF4FF0829FB7F8940B8F28
:10052000EA89FB8980818062CFCFCF93DF93EC0192
:10053000888D8823B9F0AA89BB89E889F9898C91CB
:1005400085FD03C0808186FD0DC00FB607FCF7CF87
:100550008C9185FFF2CF808185FFEDCFCE010E9487
:100560002602E9CFDF91CF91089508952091C90126
:10057000260F3327331F21323105ECF4209112026C
:10058000FC0190E080E0243069F082E00895A091C1
:10059000C9012191AC0147555E4FA40FB52FB11D84
:1005A0002C930196861798F38091C901680F609388
:1005B000C90180E0089581E008951092120281E05F
:1005C000809311021092EC0161E082E10E94A6008A
:1005D00061E083E10E94A600E9EBF0E080818E7F7C
:1005E000808380818D7F808388E48093B80085E458
:1005F0008093BC000895CF93DF9391E09093A8017E
:100600008823B9F0C091B800D091BA008091BC00A5
:100610008A7B8093BC0060E082E10E94A60060E0DB
:1006200083E10E94A6000E94DD02D093BA00C0932D
:10063000B800DF91CF9108950895E0914102809133
:100640004002E81730F4F0E0E857FE4F808190E078
:1006500008958FEF9FEF089590914102809140029D
:100660002FEF3FEF981748F4E92FF0E0E857FE4FDF
:10067000208130E09F5F90934102C90108958091ED
:10068000400290914102891B990B0895CF92DF920D
:10069000EF92FF920F931F93CF93DF937C01CB01D7
:1006A0008A0120911802222389F0EB016B01C40E0C
:1006B000D51ECC15DD0569F06991D701ED91FC914E
:1006C0000190F081E02DC7010995F3CF642F0E94BE
:1006D000B602C801DF91CF911F910F91FF90EF906B
:1006E000DF90CF900895CF93DF931F92CDB7DEB701
:1006F0006983209118022223F9F020913E022032D2
:1007000058F021E030E0FC013383228390E080E068
:100710000F90DF91CF91089580913F02E82FF0E094
:10072000E75EFD4F998190838F5F80933F028093B6
:100730003E0281E090E0ECCF61E0CE0101960E94A4
:10074000B602F7CFCF92DF92EF92FF920F931F93F3
:10075000CF93DF93FC01C48121E020931802C09362
:10076000390210923F0210923E028385682B80EF7F
:1007700092E00E947303D0913E02D13208F092C001
:100780000E944E016B017C0180911202811165C0B3
:1007900082E08093120281E0809311028FEF8093B8
:1007A000100210920F02D0930E02A9E1B2E0EEEE19
:1007B000F1E080E0D81385C01092ED018091ED0149
:1007C000CC0FC82BC093ED018091EC01813009F072
:1007D0007CC01092EC010E944E016B017C01809163
:1007E000ED018093BB008091140290911502A091BD
:1007F0001602B0911702892B8A2B8B2B99F00E943D
:100800004E010091140210911502209116023091B0
:1008100017026C197D098E099F090617170728070B
:100820003907E0F18091BC0083FDD9CF85EC80933E
:10083000BC000E944E016B017C018091120282304B
:1008400009F445C0809110028F3F61F18091100240
:10085000803241F18091100225C080911402909164
:100860001502A0911602B0911702892B8A2B8B2BAF
:1008700009F48ACF0E944E010091140210911502D2
:1008800020911602309117026C197D098E099F097B
:10089000061717072807390708F076CF809113024B
:1008A0000E94FB0210923F0210923E021092180228
:1008B000DF91CF911F910F91FF90EF90DF90CF903C
:1008C00008959D9191938F5F75CF85EEB0CF809104
:1008D000140290911502A0911602B0911702892B73
:1008E0008A2B8B2B09F4A9CF0E944E010091140290
:1008F0001091150220911602309117026C197D0992
:100900008E099F09061717072807390708F095CFA2
:10091000C5CF90E080E008958F929F92AF92BF92F2
:100920000F931F93CF93DF93CDB7DEB7A1970FB689
:10093000F894DEBF0FBECDBF19A2423008F44AE0E2
:100940008E010F5D1F4F842E912CB12CA12CA5017F
:1009500094010E944B0BE62FB901CA01EA3044F51D
:10096000E05DD801EE938D01232B242B252B79F705
:1009700090E080E0109769F0FD0101900020E9F718
:100980003197AF014A1B5B0BBD018CEF92E00E94D7
:10099000A801A1960FB6F894DEBF0FBECDBFDF91C0
:1009A000CF911F910F91BF90AF909F908F9008951E
:1009B000E95CD7CFFC0101900020E9F73197AF0146
:1009C000481B590BBC018CEF92E00C94A8010F93CB
:1009D0001F93CF938C01C62F0E94A2036C2F6460DB
:1009E000C8010E94A2036C2F6B7FC8010E94A20362
:1009F00083EC90E00197F1F7CF911F910F9108954B
:100A00000F931F93CF93DF938C01D62FC42F607F5A
:100A1000642B0E94E70480E1D89FB00111246C2B65
:100A2000C801DF91CF911F910F910C94E70440E032
:100A300061E08CEF92E00E9400058BE39FE101975B
:100A4000F1F7089570E060E08EE00E94F20070E03F
:100A500060E08FE00E94F20070E060E080E10E94C0
:100A6000F20070E060E081E10E94F20060E083E06B
:100A70000E94A60060E084E00E94A60060E085E09D
:100A80000E94A60060E086E00E94A6000C94170574
:100A9000CF93DF93CDB7DEB728970FB6F894DEBFBC
:100AA0000FBECDBF98E0E2E0F1E0DE0111960190CB
:100AB0000D929A95E1F790910403961708F46FEF61
:100AC000262F30E0220F331F41E050E04C0F5D1F16
:100AD000240F351FF9016081680F606840E08CEFDA
:100AE00092E028960FB6F894DEBF0FBECDBFDF911F
:100AF000CF910C94000541E00E94000581E090E058
:100B00000895CF92DF92EF92FF926C01990FEE0859
:100B1000FF08F7FE16C041E06DE28CEF92E00E9404
:100B2000000566277727CB016C197D098E099F097F
:100B30004AE00E948C040196FF90EF90DF90CF90E6
:100B400008954AE0C701B601FF90EF90DF90CF9083
:100B50000C948C0485ED8093BC00809114029091DC
:100B60001502A0911602B09117020796A11DB11DA2
:100B700023E0B695A795979587952A95D1F720916B
:100B8000BC0024FD03C0109212020895409114028B
:100B9000509115026091160270911702452B462B59
:100BA000472B69F30097A105B10541F02AE22A9588
:100BB000F1F700C00197A109B109E1CF80911302BB
:100BC0000C94FB021F920F920FB60F9211242F93D9
:100BD0003F938F939F93AF93BF9380914B029091DC
:100BE0004C02A0914D02B0914E0230914A0223E096
:100BF000230F2D3758F50196A11DB11D20934A02F0
:100C000080934B0290934C02A0934D02B0934E02FE
:100C100080914F0290915002A0915102B0915202E6
:100C20000196A11DB11D80934F0290935002A09395
:100C30005102B0935202BF91AF919F918F913F911A
:100C40002F910F900FBE0F901F90189526E8230F3D
:100C50000296A11DB11DD2CF1F920F920FB60F9217
:100C600011242F933F934F935F936F937F938F93B1
:100C70009F93AF93BF93EF93FF9383E592E00E941E
:100C80002602FF91EF91BF91AF919F918F917F913C
:100C90006F915F914F913F912F910F900FBE0F90E9
:100CA0001F9018951F920F920FB60F9211242F9339
:100CB0008F939F93EF93FF93E0916302F09164020F
:100CC0008081E0916902F0916A0282FD1BC09081EF
:100CD00080916C028F5F8F7320916D02821741F0BB
:100CE000E0916C02F0E0ED5AFD4F958F80936C021D
:100CF000FF91EF919F918F912F910F900FBE0F90C9
:100D00001F9018958081F4CF1F920F920FB60F920B
:100D100011242F933F934F935F936F937F938F9300
:100D20009F93AF93BF93EF93FF938091B900887F18
:100D3000803609F44AC0F0F5883209F4A7C018F5E6
:100D4000803109F49BC0B8F4882309F4F9C08830D5
:100D500009F494C0FF91EF91BF91AF919F918F9152
:100D60007F916F915F914F913F912F910F900FBEA7
:100D70000F901F901895883109F488C0803251F780
:100D80008093100214C0803409F49DC040F4803375
:100D9000B9F38833F9F68093100285ECB0C0803542
:100DA00009F485C0883509F496C0883499F60E9404
:100DB000AA05D0CF883909F48CC038F5883729F0D6
:100DC00050F4883611F0803729F683E080931202C0
:100DD0001092EB0157C0883809F47BC0803919F0B4
:100DE000803809F0B7CF8091EB01803208F071C0F4
:100DF000E091EB0181E08E0F8093EB018091BB00CD
:100E0000F0E0E553FE4F80833DC0803B39F0E0F4D5
:100E1000803A09F479C0883A09F09CCF84E0809345
:100E200012021092CA011092C901E0913C02F091A5
:100E30003D0209958091C90181110FC081E0809325
:100E4000C9011092A90109C0803C09F4A6CF883CD1
:100E500009F4A3CF883B09F07DCFE091CA0181E07E
:100E60008E0F8093CA01F0E0E755FE4F808180939A
:100E7000BB009091CA018091C90129C08091ED0108
:100E80008093BB0085EC8093BC0064CF90910F02EF
:100E900080910E02981758F5E0910F0281E08E0FB5
:100EA00080930F02F0E0E251FE4F8081E9CFE091A4
:100EB0000F0281E08E0F80930F028091BB00F0E063
:100EC000E251FE4F808390910F0280910E0298179D
:100ED000C8F285E8D8CFE0910F0281E08E0F8093B1
:100EE0000F028091BB00F0E0E251FE4F80838091C1
:100EF000110281115CCF81E08093EC0184EA809340
:100F0000BC001092120226CF85EC8093BC00109298
:100F100012028091EB01803230F4E091EB01F0E0BD
:100F2000E553FE4F10826091EB0170E0E0913A02D0
:100F3000F0913B028BEC91E009951092EB010ACF06
:100F40001092100234CFE3E5F2E01382128288EEB1
:100F500093E0A0E0B0E084839583A683B7832EE07E
:100F600031E03183208325EC30E03587248724EC81
:100F700030E03787268720EC30E0318B208B21EC66
:100F800030E0338B228B22EC30E0358B248B26EC47
:100F900030E0378B268B118E128E138E148EE0EF7D
:100FA000F2E01382128284839583A683B78380E262
:100FB00091E091838083ECEFF2E01382128282E36E
:100FC00091E09183808387E2848380E1818782E05E
:100FD000828713860895789484B5826084BD84B531
:100FE000816084BD85B5826085BD85B5816085BD24
:100FF00080916E00816080936E00109281008091DC
:101000008100826080938100809181008160809363
:101010008100809180008160809380008091B10088
:1010200084608093B1008091B00081608093B000B3
:1010300080917A00846080937A0080917A00826047
:1010400080937A0080917A00816080937A00809109
:101050007A00806880937A001092C1008EE00E942E
:1010600087008FE00E94870080E10E94870081E175
:101070000E94870083E00E94870084E00E9487002E
:1010800085E00E94870086E00E948700E09163026D
:10109000F091640282E08083E0915F02F09160024F
:1010A0001082E0916102F09162028FEC80831092D5
:1010B0006B02E0916702F091680286E08083E09124
:1010C0006502F0916602808180618083E091650213
:1010D000F0916602808188608083E0916502F091E2
:1010E0006602808180688083E0916502F0916602EB
:1010F00080818F7D80831092410210924002109275
:101100003F0210923E020E94DD0286EA91E0909337
:101110003D0280933C0287EA91E090933B028093EA
:101120003A021092010380910603823018F098E091
:10113000909301038093040362E370E080E090E009
:101140000E947301609107038CEF92E00E94A2035A
:1011500068EE73E080E090E00E94730160E38CEF42
:1011600092E00E94E704CBE4D6E4CE010197F1F7C8
:1011700060E38CEF92E00E94E7042197F1F760E3CF
:101180008CEF92E00E94E70483E592E00197F1F78B
:1011900060E28CEF92E00E94E704609101036062DC
:1011A00040E08CEF92E00E94000584E0809302030F
:1011B00040E06CE08CEF92E00E9400050E94170571
:1011C00082E08093030340E066E08CEF92E00E94AF
:1011D000000540E062E08CEF92E00E9400058BE3A6
:1011E0009FE10197F1F788E08093070360E08CEFBF
:1011F00092E00E94A20360E083E00E9448058AE337
:1012000091E00E94DA0460E177E280E090E00E94E1
:1012100073010E94170522EB222E312C3CEC432E49
:10122000512C4FEB642E712C58ED852E912C0CE82F
:1012300010E085EAC82ED12C94E6A92EB12CC0E08E
:10124000D0E083E592E00E940602181619060CF021
:1012500058C083E592E00E94E4017C01909349022A
:10126000809348020E94220589E3E816F10409F4FC
:101270000FC20CF074C084E3E816F10409F4F4C161
:101280000CF059C081E3E816F10409F4E1C10CF057
:1012900043C080E3E816F10409F4D5C11092470277
:1012A00010924602E0904802F0904902F092450206
:1012B000E09244028091420290914302E816F906BE
:1012C00001F193E5E916F104C1F461E08EE00E94BA
:1012D000A60061E08FE00E94A60061E080E10E942C
:1012E000A60061E081E10E94A6006DE270E080E06E
:1012F00090E00E9473010E942205F0924302E09266
:101300004202209709F49DCF0E941202882309F41B
:101310008ECF0E9400008BCF92E3E916F10409F40E
:101320009CC183E3E816F10409F0B8CFD092010123
:10133000C0920001B3CF96E3E916F10409F49EC10F
:101340000CF497C197E3E916F10409F49CC188E312
:10135000E816F10409F0A2CF85EE90E080C199E48F
:10136000E916F10409F448C10CF061C096E4E916ED
:10137000F10409F49BC054F592E4E916F10409F074
:101380008DCFE0900001F0900101B7018FE00E9445
:10139000F200B70181E10E94F20060E083E00E9468
:1013A000A60060E084E00E94A60060E085E00E9464
:1013B000A60061E086E00E94A6000E94170560E09A
:1013C00080E00E94480583E591E094C087E4E81638
:1013D000F10409F4EAC098E4E916F10409F05ECFDB
:1013E00060914602709147028FE00E94F200609186
:1013F00000017091010181E10E94F20060E083E050
:101400000E94A60061E084E00E94A60060E085E002
:101410000E94A60061E086E00E94A6000E941705D7
:1014200060E080E00E94480583E791E063C08CE4BF
:10143000E816F10409F46FC064F58AE4E816F104D3
:1014400009F02CCF60910001709101018FE00E94A2
:10145000F200609146027091470281E10E94F20021
:1014600060E083E00E94A60060E084E00E94A600A5
:1014700061E085E00E94A60061E086E00E94A6008F
:101480000E94170560E080E00E9448058DE791E02A
:1014900031C092E5E916F10409F462C081E7E8166B
:1014A000F10409F0FBCE8FEF90E0D9C0E09000018D
:1014B000F0900101B7018EE00E94F200B70180E1D7
:1014C0000E94F20061E083E00E94A60060E084E0F8
:1014D0000E94A60060E085E00E94A60060E086E031
:1014E0000E94A6000E94170560E080E00E94480567
:1014F00083E491E00E94DA0461E080E00E94480504
:101500008BE491E00E94DA04809100019091010146
:101510000E948105C3CEE0900001F0900101B70167
:1015200080E10E94F200B7018FE00E94F20060E0CB
:1015300083E00E94A60061E084E00E94A60060E0D3
:1015400085E00E94A60060E086E00E94A6000E945E
:10155000170560E080E00E94480580E691E0CACF70
:10156000E0900001F0900101B70181E10E94F200DA
:10157000B7018EE00E94F20060E083E00E94A600C6
:1015800060E084E00E94A60061E085E00E94A60081
:1015900060E086E00E94A6000E94170560E080E0FF
:1015A0000E9448058DE691E0A5CF609146027091BA
:1015B00047028EE00E94F2006091000170910101EB
:1015C00080E10E94F20061E083E00E94A60061E0F9
:1015D00084E00E94A60060E085E00E94A60060E032
:1015E00086E00E94A6000E94170560E080E00E944D
:1015F000480588E591E07ECF60910001709101017E
:101600008EE00E94F200609146027091470280E1F4
:101610000E94F20061E083E00E94A60060E084E0A6
:101620000E94A60061E085E00E94A60060E086E0DE
:101630000E94A6000E94170560E080E00E94480515
:1016400085E691E057CFB0920101A092000126CE2D
:10165000109301010093000121CE89E990E090935D
:101660000101809300011ACE309201012092000105
:1016700015CE709201016092000110CE50920101CE
:10168000409200010BCE909201018092000106CEA3
:1016900082EF90E0E4CFA1E21A2EAA1BBB1BFD0152
:1016A0000DC0AA1FBB1FEE1FFF1FA217B307E40741
:1016B000F50720F0A21BB30BE40BF50B661F771F99
:1016C000881F991F1A9469F7609570958095909579
:1016D0009B01AC01BD01CF010895EE0FFF1F0590E6
:0A16E000F491E02D0994F894FFCF77
:1016EA00CC00000040001400540000000000480232
:1016FA00A801D50195020602E401F80100000000E4
:10170A007303460389041C033F032C031D030000D3
:10171A0000007B05A8018904B5024D204F20532003
:10172A00413200466F72776F726400537065656468
:10173A003A20004261636B00466F727761726420DF
:10174A006C65667400466F727761726420526967CD
:10175A006874004261636B206C6566740042616361
:08176A006B20526967687400EE
:00000001FF
